{
  "_format": "hh-sol-artifact-1",
  "contractName": "MusicShop",
  "sourceName": "contracts/MusicShop.sol",
  "abi": [
    {
      "inputs": [
        {
          "internalType": "address",
          "name": "_owner",
          "type": "address"
        }
      ],
      "stateMutability": "nonpayable",
      "type": "constructor"
    },
    {
      "anonymous": false,
      "inputs": [
        {
          "indexed": true,
          "internalType": "bytes32",
          "name": "uid",
          "type": "bytes32"
        },
        {
          "indexed": true,
          "internalType": "address",
          "name": "customer",
          "type": "address"
        },
        {
          "indexed": true,
          "internalType": "uint256",
          "name": "timestamp",
          "type": "uint256"
        }
      ],
      "name": "AlbumBought",
      "type": "event"
    },
    {
      "anonymous": false,
      "inputs": [
        {
          "indexed": true,
          "internalType": "bytes32",
          "name": "albumUid",
          "type": "bytes32"
        },
        {
          "indexed": true,
          "internalType": "address",
          "name": "customer",
          "type": "address"
        }
      ],
      "name": "OrderDelivered",
      "type": "event"
    },
    {
      "stateMutability": "nonpayable",
      "type": "fallback"
    },
    {
      "inputs": [
        {
          "internalType": "bytes32",
          "name": "uid",
          "type": "bytes32"
        },
        {
          "internalType": "string",
          "name": "title",
          "type": "string"
        },
        {
          "internalType": "uint256",
          "name": "price",
          "type": "uint256"
        },
        {
          "internalType": "uint256",
          "name": "quantity",
          "type": "uint256"
        }
      ],
      "name": "addAlbum",
      "outputs": [],
      "stateMutability": "nonpayable",
      "type": "function"
    },
    {
      "inputs": [
        {
          "internalType": "uint256",
          "name": "",
          "type": "uint256"
        }
      ],
      "name": "albums",
      "outputs": [
        {
          "internalType": "uint256",
          "name": "index",
          "type": "uint256"
        },
        {
          "internalType": "bytes32",
          "name": "uid",
          "type": "bytes32"
        },
        {
          "internalType": "string",
          "name": "title",
          "type": "string"
        },
        {
          "internalType": "uint256",
          "name": "price",
          "type": "uint256"
        },
        {
          "internalType": "uint256",
          "name": "quantity",
          "type": "uint256"
        }
      ],
      "stateMutability": "view",
      "type": "function"
    },
    {
      "inputs": [],
      "name": "allAlbums",
      "outputs": [
        {
          "components": [
            {
              "internalType": "uint256",
              "name": "index",
              "type": "uint256"
            },
            {
              "internalType": "bytes32",
              "name": "uid",
              "type": "bytes32"
            },
            {
              "internalType": "string",
              "name": "title",
              "type": "string"
            },
            {
              "internalType": "uint256",
              "name": "price",
              "type": "uint256"
            },
            {
              "internalType": "uint256",
              "name": "quantity",
              "type": "uint256"
            }
          ],
          "internalType": "struct MusicShop.Album[]",
          "name": "",
          "type": "tuple[]"
        }
      ],
      "stateMutability": "view",
      "type": "function"
    },
    {
      "inputs": [
        {
          "internalType": "uint256",
          "name": "_index",
          "type": "uint256"
        }
      ],
      "name": "buy",
      "outputs": [],
      "stateMutability": "payable",
      "type": "function"
    },
    {
      "inputs": [],
      "name": "currentIndex",
      "outputs": [
        {
          "internalType": "uint256",
          "name": "",
          "type": "uint256"
        }
      ],
      "stateMutability": "view",
      "type": "function"
    },
    {
      "inputs": [],
      "name": "currentOrderId",
      "outputs": [
        {
          "internalType": "uint256",
          "name": "",
          "type": "uint256"
        }
      ],
      "stateMutability": "view",
      "type": "function"
    },
    {
      "inputs": [
        {
          "internalType": "uint256",
          "name": "_index",
          "type": "uint256"
        }
      ],
      "name": "delivered",
      "outputs": [],
      "stateMutability": "nonpayable",
      "type": "function"
    },
    {
      "inputs": [
        {
          "internalType": "uint256",
          "name": "",
          "type": "uint256"
        }
      ],
      "name": "orders",
      "outputs": [
        {
          "internalType": "uint256",
          "name": "orderId",
          "type": "uint256"
        },
        {
          "internalType": "bytes32",
          "name": "albumUid",
          "type": "bytes32"
        },
        {
          "internalType": "address",
          "name": "customer",
          "type": "address"
        },
        {
          "internalType": "uint256",
          "name": "orderedAt",
          "type": "uint256"
        },
        {
          "internalType": "enum MusicShop.OrderStatus",
          "name": "status",
          "type": "uint8"
        }
      ],
      "stateMutability": "view",
      "type": "function"
    },
    {
      "inputs": [],
      "name": "owner",
      "outputs": [
        {
          "internalType": "address",
          "name": "",
          "type": "address"
        }
      ],
      "stateMutability": "view",
      "type": "function"
    },
    {
      "inputs": [
        {
          "internalType": "bytes4",
          "name": "interfaceId",
          "type": "bytes4"
        }
      ],
      "name": "supportsInterface",
      "outputs": [
        {
          "internalType": "bool",
          "name": "",
          "type": "bool"
        }
      ],
      "stateMutability": "view",
      "type": "function"
    },
    {
      "stateMutability": "payable",
      "type": "receive"
    }
  ],
  "bytecode": "0x608060405234801562000010575f80fd5b5060405162001ad438038062001ad48339818101604052810190620000369190620000e2565b8060045f6101000a81548173ffffffffffffffffffffffffffffffffffffffff021916908373ffffffffffffffffffffffffffffffffffffffff1602179055505062000112565b5f80fd5b5f73ffffffffffffffffffffffffffffffffffffffff82169050919050565b5f620000ac8262000081565b9050919050565b620000be81620000a0565b8114620000c9575f80fd5b50565b5f81519050620000dc81620000b3565b92915050565b5f60208284031215620000fa57620000f96200007d565b5b5f6200010984828501620000cc565b91505092915050565b6119b480620001205f395ff3fe608060405260043610610094575f3560e01c8063925931fc11610058578063925931fc1461020e578063a85c38ef14610238578063d96a094a14610278578063ea5df05914610294578063ec34297a146102d4576100d4565b806301ffc9a71461012e57806326987b601461016a5780634b5e4108146101945780636526deb1146101bc5780638da5cb5b146101e4576100d4565b366100d4576040517f08c379a00000000000000000000000000000000000000000000000000000000081526004016100cb90610d59565b60405180910390fd5b3480156100df575f80fd5b5061012c5f368080601f0160208091040260200160405190810160405280939291908181526020018383808284375f81840152601f19601f820116905080830192505050505050506102fe565b005b348015610139575f80fd5b50610154600480360381019061014f9190610dd4565b610397565b6040516101619190610e19565b60405180910390f35b348015610175575f80fd5b5061017e610400565b60405161018b9190610e4a565b60405180910390f35b34801561019f575f80fd5b506101ba60048036038101906101b59190610e8d565b610406565b005b3480156101c7575f80fd5b506101e260048036038101906101dd9190610f4c565b6105c9565b005b3480156101ef575f80fd5b506101f8610747565b604051610205919061100f565b60405180910390f35b348015610219575f80fd5b5061022261076c565b60405161022f9190610e4a565b60405180910390f35b348015610243575f80fd5b5061025e60048036038101906102599190610e8d565b610772565b60405161026f9594939291906110aa565b60405180910390f35b610292600480360381019061028d9190610e8d565b6107de565b005b34801561029f575f80fd5b506102ba60048036038101906102b59190610e8d565b610a19565b6040516102cb959493929190611175565b60405180910390f35b3480156102df575f80fd5b506102e8610adf565b6040516102f59190611361565b60405180910390f35b6103948160405160240161031291906113d3565b6040516020818303038152906040527f0be77f56000000000000000000000000000000000000000000000000000000007bffffffffffffffffffffffffffffffffffffffffffffffffffffffff19166020820180517bffffffffffffffffffffffffffffffffffffffffffffffffffffffff8381831617835250505050610c5d565b50565b5f7f01ffc9a7000000000000000000000000000000000000000000000000000000007bffffffffffffffffffffffffffffffffffffffffffffffffffffffff1916827bffffffffffffffffffffffffffffffffffffffffffffffffffffffff1916149050919050565b60025481565b60045f9054906101000a900473ffffffffffffffffffffffffffffffffffffffff1673ffffffffffffffffffffffffffffffffffffffff163373ffffffffffffffffffffffffffffffffffffffff1614610495576040517f08c379a000000000000000000000000000000000000000000000000000000000815260040161048c9061143d565b60405180910390fd5b5f600182815481106104aa576104a961145b565b5b905f5260205f20906005020190506001808111156104cb576104ca611037565b5b816004015f9054906101000a900460ff1660018111156104ee576104ed611037565b5b0361052e576040517f08c379a0000000000000000000000000000000000000000000000000000000008152600401610525906114d2565b60405180910390fd5b6001816004015f6101000a81548160ff0219169083600181111561055557610554611037565b5b0217905550806002015f9054906101000a900473ffffffffffffffffffffffffffffffffffffffff1673ffffffffffffffffffffffffffffffffffffffff1681600101547f5bb66d85e0b78294f5d62dcc373c22e3d67e643b319cba2fba58c8180008220b60405160405180910390a35050565b60045f9054906101000a900473ffffffffffffffffffffffffffffffffffffffff1673ffffffffffffffffffffffffffffffffffffffff163373ffffffffffffffffffffffffffffffffffffffff1614610658576040517f08c379a000000000000000000000000000000000000000000000000000000000815260040161064f9061143d565b60405180910390fd5b5f6040518060a00160405280600254815260200187815260200186868080601f0160208091040260200160405190810160405280939291908181526020018383808284375f81840152601f19601f82011690508083019250505050505050815260200184815260200183815250908060018154018082558091505060019003905f5260205f2090600502015f909190919091505f820151815f01556020820151816001015560408201518160020190816107129190611717565b506060820151816003015560808201518160040155505060025f81548092919061073b90611813565b91905055505050505050565b60045f9054906101000a900473ffffffffffffffffffffffffffffffffffffffff1681565b60035481565b60018181548110610781575f80fd5b905f5260205f2090600502015f91509050805f015490806001015490806002015f9054906101000a900473ffffffffffffffffffffffffffffffffffffffff1690806003015490806004015f9054906101000a900460ff16905085565b5f8082815481106107f2576107f161145b565b5b905f5260205f209060050201905080600301543414610846576040517f08c379a000000000000000000000000000000000000000000000000000000000815260040161083d906118a4565b60405180910390fd5b5f81600401541161088c576040517f08c379a00000000000000000000000000000000000000000000000000000000081526004016108839061190c565b60405180910390fd5b806004015f8154809291906108a09061192a565b919050555060016040518060a001604052806003548152602001836001015481526020013373ffffffffffffffffffffffffffffffffffffffff1681526020014281526020015f60018111156108f9576108f8611037565b5b815250908060018154018082558091505060019003905f5260205f2090600502015f909190919091505f820151815f0155602082015181600101556040820151816002015f6101000a81548173ffffffffffffffffffffffffffffffffffffffff021916908373ffffffffffffffffffffffffffffffffffffffff160217905550606082015181600301556080820151816004015f6101000a81548160ff021916908360018111156109ae576109ad611037565b5b0217905550505060035f8154809291906109c790611813565b9190505550423373ffffffffffffffffffffffffffffffffffffffff1682600101547f428114751c1b5d2334d5f2464a79219ffc3a15d4a23042756994f6337fdccc1760405160405180910390a45050565b5f8181548110610a27575f80fd5b905f5260205f2090600502015f91509050805f015490806001015490806002018054610a529061154a565b80601f0160208091040260200160405190810160405280929190818152602001828054610a7e9061154a565b8015610ac95780601f10610aa057610100808354040283529160200191610ac9565b820191905f5260205f20905b815481529060010190602001808311610aac57829003601f168201915b5050505050908060030154908060040154905085565b60605f808054905090505f8167ffffffffffffffff811115610b0457610b036114f0565b5b604051908082528060200260200182016040528015610b3d57816020015b610b2a610ca1565b815260200190600190039081610b225790505b5090505f5b82811015610c54575f8181548110610b5d57610b5c61145b565b5b905f5260205f2090600502016040518060a00160405290815f820154815260200160018201548152602001600282018054610b979061154a565b80601f0160208091040260200160405190810160405280929190818152602001828054610bc39061154a565b8015610c0e5780601f10610be557610100808354040283529160200191610c0e565b820191905f5260205f20905b815481529060010190602001808311610bf157829003601f168201915b5050505050815260200160038201548152602001600482015481525050828281518110610c3e57610c3d61145b565b5b6020026020010181905250806001019050610b42565b50809250505090565b610c7481610c6c610c77610c96565b63ffffffff16565b50565b5f6a636f6e736f6c652e6c6f6790505f80835160208501845afa505050565b610ccf819050919050565b6040518060a001604052805f81526020015f8019168152602001606081526020015f81526020015f81525090565b610cd7611951565b565b5f82825260208201905092915050565b7f506c656173652075736520746865206275792066756e6374696f6e20746f20705f8201527f7572636861736520616c62756d73210000000000000000000000000000000000602082015250565b5f610d43602f83610cd9565b9150610d4e82610ce9565b604082019050919050565b5f6020820190508181035f830152610d7081610d37565b9050919050565b5f80fd5b5f80fd5b5f7fffffffff0000000000000000000000000000000000000000000000000000000082169050919050565b610db381610d7f565b8114610dbd575f80fd5b50565b5f81359050610dce81610daa565b92915050565b5f60208284031215610de957610de8610d77565b5b5f610df684828501610dc0565b91505092915050565b5f8115159050919050565b610e1381610dff565b82525050565b5f602082019050610e2c5f830184610e0a565b92915050565b5f819050919050565b610e4481610e32565b82525050565b5f602082019050610e5d5f830184610e3b565b92915050565b610e6c81610e32565b8114610e76575f80fd5b50565b5f81359050610e8781610e63565b92915050565b5f60208284031215610ea257610ea1610d77565b5b5f610eaf84828501610e79565b91505092915050565b5f819050919050565b610eca81610eb8565b8114610ed4575f80fd5b50565b5f81359050610ee581610ec1565b92915050565b5f80fd5b5f80fd5b5f80fd5b5f8083601f840112610f0c57610f0b610eeb565b5b8235905067ffffffffffffffff811115610f2957610f28610eef565b5b602083019150836001820283011115610f4557610f44610ef3565b5b9250929050565b5f805f805f60808688031215610f6557610f64610d77565b5b5f610f7288828901610ed7565b955050602086013567ffffffffffffffff811115610f9357610f92610d7b565b5b610f9f88828901610ef7565b94509450506040610fb288828901610e79565b9250506060610fc388828901610e79565b9150509295509295909350565b5f73ffffffffffffffffffffffffffffffffffffffff82169050919050565b5f610ff982610fd0565b9050919050565b61100981610fef565b82525050565b5f6020820190506110225f830184611000565b92915050565b61103181610eb8565b82525050565b7f4e487b71000000000000000000000000000000000000000000000000000000005f52602160045260245ffd5b6002811061107557611074611037565b5b50565b5f81905061108582611064565b919050565b5f61109482611078565b9050919050565b6110a48161108a565b82525050565b5f60a0820190506110bd5f830188610e3b565b6110ca6020830187611028565b6110d76040830186611000565b6110e46060830185610e3b565b6110f1608083018461109b565b9695505050505050565b5f81519050919050565b5f5b83811015611122578082015181840152602081019050611107565b5f8484015250505050565b5f601f19601f8301169050919050565b5f611147826110fb565b6111518185610cd9565b9350611161818560208601611105565b61116a8161112d565b840191505092915050565b5f60a0820190506111885f830188610e3b565b6111956020830187611028565b81810360408301526111a7818661113d565b90506111b66060830185610e3b565b6111c36080830184610e3b565b9695505050505050565b5f81519050919050565b5f82825260208201905092915050565b5f819050602082019050919050565b6111ff81610e32565b82525050565b61120e81610eb8565b82525050565b5f82825260208201905092915050565b5f61122e826110fb565b6112388185611214565b9350611248818560208601611105565b6112518161112d565b840191505092915050565b5f60a083015f8301516112715f8601826111f6565b5060208301516112846020860182611205565b506040830151848203604086015261129c8282611224565b91505060608301516112b160608601826111f6565b5060808301516112c460808601826111f6565b508091505092915050565b5f6112da838361125c565b905092915050565b5f602082019050919050565b5f6112f8826111cd565b61130281856111d7565b935083602082028501611314856111e7565b805f5b8581101561134f578484038952815161133085826112cf565b945061133b836112e2565b925060208a01995050600181019050611317565b50829750879550505050505092915050565b5f6020820190508181035f83015261137981846112ee565b905092915050565b5f81519050919050565b5f82825260208201905092915050565b5f6113a582611381565b6113af818561138b565b93506113bf818560208601611105565b6113c88161112d565b840191505092915050565b5f6020820190508181035f8301526113eb818461139b565b905092915050565b7f6e6f7420616e206f776e657221000000000000000000000000000000000000005f82015250565b5f611427600d83610cd9565b9150611432826113f3565b602082019050919050565b5f6020820190508181035f8301526114548161141b565b9050919050565b7f4e487b71000000000000000000000000000000000000000000000000000000005f52603260045260245ffd5b7f696e76616c6964207374617475730000000000000000000000000000000000005f82015250565b5f6114bc600e83610cd9565b91506114c782611488565b602082019050919050565b5f6020820190508181035f8301526114e9816114b0565b9050919050565b7f4e487b71000000000000000000000000000000000000000000000000000000005f52604160045260245ffd5b7f4e487b71000000000000000000000000000000000000000000000000000000005f52602260045260245ffd5b5f600282049050600182168061156157607f821691505b6020821081036115745761157361151d565b5b50919050565b5f819050815f5260205f209050919050565b5f6020601f8301049050919050565b5f82821b905092915050565b5f600883026115d67fffffffffffffffffffffffffffffffffffffffffffffffffffffffffffffffff8261159b565b6115e0868361159b565b95508019841693508086168417925050509392505050565b5f819050919050565b5f61161b61161661161184610e32565b6115f8565b610e32565b9050919050565b5f819050919050565b61163483611601565b61164861164082611622565b8484546115a7565b825550505050565b5f90565b61165c611650565b61166781848461162b565b505050565b5b8181101561168a5761167f5f82611654565b60018101905061166d565b5050565b601f8211156116cf576116a08161157a565b6116a98461158c565b810160208510156116b8578190505b6116cc6116c48561158c565b83018261166c565b50505b505050565b5f82821c905092915050565b5f6116ef5f19846008026116d4565b1980831691505092915050565b5f61170783836116e0565b9150826002028217905092915050565b611720826110fb565b67ffffffffffffffff811115611739576117386114f0565b5b611743825461154a565b61174e82828561168e565b5f60209050601f83116001811461177f575f841561176d578287015190505b61177785826116fc565b8655506117de565b601f19841661178d8661157a565b5f5b828110156117b45784890151825560018201915060208501945060208101905061178f565b868310156117d157848901516117cd601f8916826116e0565b8355505b6001600288020188555050505b505050505050565b7f4e487b71000000000000000000000000000000000000000000000000000000005f52601160045260245ffd5b5f61181d82610e32565b91507fffffffffffffffffffffffffffffffffffffffffffffffffffffffffffffffff820361184f5761184e6117e6565b5b600182019050919050565b7f696e76616c6964207072696365000000000000000000000000000000000000005f82015250565b5f61188e600d83610cd9565b91506118998261185a565b602082019050919050565b5f6020820190508181035f8301526118bb81611882565b9050919050565b7f6f7574206f662073746f636b21000000000000000000000000000000000000005f82015250565b5f6118f6600d83610cd9565b9150611901826118c2565b602082019050919050565b5f6020820190508181035f830152611923816118ea565b9050919050565b5f61193482610e32565b91505f8203611946576119456117e6565b5b600182039050919050565b7f4e487b71000000000000000000000000000000000000000000000000000000005f52605160045260245ffdfea264697066735822122032be6ca1f53a7971d68b7272d2b50a7a0e1196d3daa6f246824e2de1f8f2764064736f6c63430008180033",
  "linkReferences": {},
  "deployedLinkReferences": {}
}